:100000000C9462000C948A000C948A000C948A0070
:100010000C948A000C948A000C948A000C948A0038
:100020000C948A000C948A000C948A000C948A0028
:100030000C948A000C948A000C948A000C948A0018
:100040000C9493030C948A000C948A000C948A00FC
:100050000C948A000C948A000C948A000C948A00F8
:100060000C948A000C948A000000000023002600F3
:10007000290000000000240027002A0000000000E2
:10008000250028002B0004040404040404040202D4
:100090000202020203030303030301020408102007
:1000A0004080010204081020010204081020000012
:1000B0000008000201000003040700000000000027
:1000C00000000D0611241FBECFEFD8E0DEBFCDBF6C
:1000D00011E0A0E0B1E0E8E5FFE002C005900D927C
:1000E000A636B107D9F721E0A6E6B1E001C01D921E
:1000F000AB38B207E1F710E0C2E6D0E004C02197C8
:10010000FE010E94A407C136D107C9F70E9422044C
:100110000C94AA070C94000090E0FC01E255FF4FFC
:100120002491FC01E656FF4F3491FC01EA57FF4F42
:10013000E491EE23C9F0222339F0233001F1A8F431
:10014000213019F1223029F1F0E0EE0FFF1FE458C1
:10015000FF4FA591B4918FB7F894EC91611126C02F
:1001600030953E233C938FBF08952730A9F0283067
:10017000C9F0243049F7809180008F7D03C08091C1
:1001800080008F7780938000DFCF84B58F7784BD28
:10019000DBCF84B58F7DFBCF8091B0008F778093CC
:1001A000B000D2CF8091B0008F7DF9CF3E2BDACF57
:1001B000CF93DF9390E0FC01E656FF4F24918A57DE
:1001C0009F4FFC0184918823D1F090E0880F991F04
:1001D000FC01EE58FF4FA591B491FC01E458FF4F8C
:1001E000C591D49161110EC09FB7F8948C91E22F04
:1001F000E0958E238C932881E223E8839FBFDF91D3
:10020000CF9108958FB7F894EC91E22BEC938FBFC8
:10021000F6CF1F93CF93DF93182FEB0161E00E947D
:10022000D800CF3FD10539F461E0812FDF91CF9124
:100230001F910C948C00E12FF0E0E255FF4FE49108
:10024000E33039F148F4E130B9F0E230E9F0C03898
:10025000D10554F760E0E9CFE73029F1E83059F1F2
:10026000E430A9F780918000806280938000D09371
:100270008B00C0938A0004C084B5806884BDC7BD6C
:10028000DF91CF911F91089584B5806284BDC8BD70
:10029000F7CF80918000806880938000D0938900A0
:1002A000C0938800EDCF8091B00080688093B0004B
:1002B000C093B300E5CF8091B00080628093B0001E
:1002C000C093B400DDCF3FB7F89480916F01909157
:1002D0007001A0917101B091720126B5A89B05C073
:1002E0002F3F19F00196A11DB11D3FBFBA2FA92FB5
:1002F000982F8827BC01CD01620F711D811D911DB2
:1003000042E0660F771F881F991F4A95D1F708951D
:100310008F929F92AF92BF92CF92DF92EF92FF9215
:100320004B015C010E9463016B017C010E9463012F
:100330006C197D098E099F09683E734081059105FE
:10034000A8F321E0821A9108A108B10888EEC80E2E
:1003500083E0D81EE11CF11C81149104A104B104B6
:1003600029F7FF90EF90DF90CF90BF90AF909F90D4
:100370008F900895AF92BF92CF92DF92EF92FF924B
:100380000F931F93CF93DF936C017B018B01040FBD
:10039000151FEB015E01AE18BF08C017D10759F059
:1003A0006991D601ED91FC910190F081E02DC6019B
:1003B0000995892B79F7C501DF91CF911F910F9195
:1003C000FF90EF90DF90CF90BF90AF900895089589
:1003D00090E080E00895FC0101900020E9F731975A
:1003E000AF01481B590BBC0183E791E00C94BA01A3
:1003F000CF93DF93EC0160E08E810E948C0061E07E
:100400008E810E948C0060E08E810E948C008BE8BF
:1004100091E00197F1F7DF91CF910895CF92DF92AC
:10042000EF92FF920F931F93CF93DF936C017C01A8
:1004300087E0E80EF11CD0E0C0E0062F10E0B80124
:100440000C2E02C0759567950A94E2F76170F7016A
:1004500081917F010E948C002196C430D10579F7EB
:10046000C601DF91CF911F910F91FF90EF90DF9028
:10047000CF900C94F801CF92DF92EF92FF920F93FE
:100480001F93CF93DF93EC01F62E642F8C810E9493
:100490008C008D818F3F19F060E00E948C000F2D41
:1004A00010E08F8584FF25C06E0187E0C80ED11C47
:1004B000F12CE12CB8010E2C02C0759567950A94B9
:1004C000E2F76170F60181916F010E948C00FFEFED
:1004D000EF1AFF0A88E0E816F10461F7CE01DF9118
:1004E000CF911F910F91FF90EF90DF90CF900C94E0
:1004F000F801B80184E0759567958A95E1F7CE011A
:100500000E940E026F2DCE01DF91CF911F910F91AE
:10051000FF90EF90DF90CF900C940E0240E0682F98
:1005200083E791E00C943B02CF93DF93823029F470
:10053000909182019860909382018093860110923D
:10054000870180E48093880180E18093890180E5C0
:1005500080938A0161E0809177010E94D8008091A8
:1005600078018F3F19F061E00E94D80061E080912E
:1005700079010E94D800C3E7D1E09E0123573140A2
:100580008091820184FD0BC084E090E021962817C1
:10059000390744F461E08E810E94D800EECF88E0F4
:1005A00090E0F4CF8BE39DE00197F1F760E080915C
:1005B00077010E948C0060E0809179010E948C009C
:1005C000809178018F3F19F060E00E948C0080914B
:1005D000820184FD39C063E083E791E00E940E024E
:1005E000CBE4D6E4CE010197F1F763E083E791E035
:1005F0000E940E022197F1F763E083E791E00E94E9
:100600000E0283E592E00197F1F762E083E791E063
:100610000E940E028091820180620E948E0284E01C
:10062000809383018CE00E948E0281E00E948E0202
:100630008BE39FE10197F1F782E08093840186E0EC
:10064000DF91CF910C948E0280620E948E028BE427
:1006500096E40197F1F78091820180620E948E02F8
:1006600083E592E00197F1F78091820180620E9418
:100670008E02D0CF90918601691710F06FEF690F4D
:10068000E62FF0E0ED58FE4F9489890F80680C94B6
:100690008E0261E081E00E943A038CE091E00E94CA
:1006A000EB0160E089E00E948C0060E088E00E943D
:1006B0008C006FEF70E085E00E94090160E087E048
:1006C0000E948C0060E086E00E948C006FEF70E07A
:1006D00083E00C94090161E081E00E943A038FE11C
:1006E00091E00E94EB0160E089E00E948C0061E0F3
:1006F00088E00E948C0068EC70E085E00E940901AF
:1007000060E087E00E948C0061E086E00E948C003F
:1007100068EC70E083E00C94090141E00E943B0228
:1007200081E090E008951F920F920FB60F9211246E
:100730002F933F938F939F93AF93BF9380916B01C0
:1007400090916C01A0916D01B0916E0130916A01A0
:1007500023E0230F2D3758F50196A11DB11D2093DD
:100760006A0180936B0190936C01A0936D01B0932B
:100770006E0180916F0190917001A0917101B09113
:1007800072010196A11DB11D80936F0190937001BC
:10079000A0937101B0937201BF91AF919F918F911E
:1007A0003F912F910F900FBE0F901F90189526E844
:1007B000230F0296A11DB11DD2CFCF92DF92EF92EF
:1007C000FF920F931F93E82FF92F05C001501109D5
:1007D0002109310961F1908196239417B9F305C07D
:1007E000015011092109310911F1908196239413C7
:1007F000F7CFC12CD12CE12CF12C0AC08FEFC81AF5
:10080000D80AE80AF80A0C151D052E053F0579F0EF
:1008100080818623841791F36C2D7D2D8E2D9F2D45
:100820001F910F91FF90EF90DF90CF90089560E0BF
:1008300070E080E090E01F910F91FF90EF90DF90CB
:10084000CF900895CF93DF93CDB7DEB7A1970FB6C2
:10085000F894DEBF0FBECDBF789484B5826084BDAE
:1008600084B5816084BD85B5826085BD85B58160B4
:1008700085BD80916E00816080936E001092810032
:1008800080918100826080938100809181008160ED
:1008900080938100809180008160809380008091AE
:1008A000B10084608093B1008091B000816080933A
:1008B000B00080917A00846080937A0080917A0001
:1008C000826080937A0080917A00816080937A00C0
:1008D00080917A00806880937A001092C10061E074
:1008E0008CE00E94D80060E08BE00E94D80082E09B
:1008F0000E94940261E089E00E94D80061E088E0F3
:100900000E94D80061E087E00E94D80061E086E0A4
:100910000E94D80061E085E00E94D80061E083E099
:100920000E94D80081E090E0909369018093680173
:1009300035EAE32E30E0F32E41E9C42E40E0D42E18
:1009400053E0852E912C60E0A62E60E0B62E8091BB
:100950006801909169010196909369018093680103
:1009600060E08CE00E948C0062E070E080E090E04B
:100970000E94880161E08CE00E948C006AE070E0D7
:1009800080E090E00E94880160E08CE00E948C0092
:10099000F7016491F6018491E82FF0E0EE0FFF1F5C
:1009A000E859FF4F8591949100E412E42FE030E084
:1009B000462F0E94DD03611571058105910529F01F
:1009C0006F5F7F4F8F4F9F4F9F700E94610626E998
:1009D00033E44BE05DE30E94C50620E030E040E0F8
:1009E0005FE30E94C5060E94290670936701609329
:1009F000660160E080E00E943A038BE291E00E9491
:100A0000EB014090660150906701052C000C6608D0
:100A1000770877FE6CC041E06DE283E791E00E94C9
:100A20003B0222273327A901241935094609570912
:100A300019A2CE0181963C019AE0292E312C412C3D
:100A4000512CCA01B901A20191010E946E07605D9B
:100A5000F30162933F01211531054105510589F7E5
:100A60006114710419F0C3010E94EB0189E391E064
:100A70000E94EB018091660190916701843F914053
:100A80000CF450C061E081E00E943A038CE391E0F5
:100A90000E94EB0161E089E00E948C0060E088E048
:100AA0000E948C006FEF70E085E00E94090161E018
:100AB00087E00E948C0060E086E00E948C006FEF6F
:100AC00070E083E00E94090168EE73E080E090E04E
:100AD0000E94880160ED77E080E090E00E9488014C
:100AE000A114B10409F433CF0E94000030CFA30158
:100AF000920119A2CE0181963C018AE0282E312C68
:100B0000412C512CCA01B901A20191010E946E072A
:100B1000605DF30162933F012115310541055105E7
:100B200089F79ECF809168019091690180FF05C08F
:100B3000B4010E945A07892BC1F50E94490364EF52
:100B400071E080E090E00E9488010E946B0368EEF3
:100B500073E080E090E00E9488010E94490364EF06
:100B600071E080E090E00E94880161E081E00E94F5
:100B70003A038AE491E00E94EB0160E089E00E9480
:100B80008C0061E088E00E948C006BE970E083E0FB
:100B90000E94090161E087E00E948C0060E086E02D
:100BA0000E948C006BE970E08CCF0E94490364EFD7
:100BB00071E080E090E00E9488010E946B0368EE83
:100BC00073E080E090E00E9488010E94490364EF96
:100BD00071E080E090E00E94880161E081E00E9485
:100BE0003A0388E591E00E94EB0161E089E00E9410
:100BF0008C0060E088E00E948C0064E670E085E094
:100C00000E94090160E087E00E948C0061E086E0BC
:100C10000E948C0064E670E054CFE3E7F1E01382B9
:100C2000128284E091E0918380838DE084838FEF52
:100C300085838AE0868384E0878382E0808781E001
:100C400081871286138614861586168617860C945D
:100C500094020E9430066894B1110C94BF06089566
:100C60000E94A40688F09F5798F0B92F9927B75192
:100C7000B0F0E1F0660F771F881F991F1AF0BA9540
:100C8000C9F714C0B13091F00E94BE06B1E00895DA
:100C90000C94BE06672F782F8827B85F39F0B93FCC
:100CA000CCF3869577956795B395D9F73EF49095F3
:100CB0008095709561957F4F8F4F9F4F0895E89471
:100CC00009C097FB3EF490958095709561957F4F94
:100CD0008F4F9F4F9923A9F0F92F96E9BB27939542
:100CE000F695879577956795B795F111F8CFFAF452
:100CF000BB0F11F460FF1BC06F5F7F4F8F4F9F4F83
:100D000016C0882311F096E911C0772321F09EE8E0
:100D1000872F762F05C0662371F096E8862F70E046
:100D200060E02AF09A95660F771F881FDAF7880F20
:100D30009695879597F9089557FD9058440F551F3C
:100D400059F05F3F71F04795880F97FB991F61F04D
:100D50009F3F79F087950895121613061406551FC4
:100D6000F2CF4695F1DF08C0161617061806991F30
:100D7000F1CF86957105610508940895E894BB2725
:100D800066277727CB0197F908950E94D8060C941F
:100D900049070E943B0738F00E94420720F0952344
:100DA00011F00C9432070C94380711240C94BF06F0
:100DB0000E949C0670F3959FC1F3950F50E0551F5C
:100DC000629FF001729FBB27F00DB11D639FAA27A0
:100DD000F00DB11DAA1F649F6627B00DA11D661FEF
:100DE000829F2227B00DA11D621F739FB00DA11D10
:100DF000621F839FA00D611D221F749F3327A00DCA
:100E0000611D231F849F600D211D822F762F6A2F65
:100E100011249F5750409AF0F1F088234AF0EE0FCA
:100E2000FF1FBB1F661F771F881F91505040A9F7F7
:100E30009E3F510580F00C9432070C94BF065F3F33
:100E4000E4F3983ED4F3869577956795B795F79533
:100E5000E7959F5FC1F7FE2B880F911D96958795AB
:100E600097F9089597F99F6780E870E060E008952A
:100E70009FEF80EC089500240A94161617061806B2
:100E80000906089500240A9412161306140605068E
:100E90000895092E0394000C11F4882352F0BB0F1F
:100EA00040F4BF2B11F460FF04C06F5F7F4F8F4F82
:100EB0009F4F089597FB072E16F4009407D077FDF7
:100EC00009D00E94900707FC05D03EF490958195CB
:100ED0009F4F0895709561957F4F0895A1E21A2E56
:100EE000AA1BBB1BFD010DC0AA1FBB1FEE1FFF1FCE
:100EF000A217B307E407F50720F0A21BB30BE40B1E
:100F0000F50B661F771F881F991F1A9469F7609564
:100F10007095809590959B01AC01BD01CF0108951E
:100F2000AA1BBB1B51E107C0AA1FBB1FA617B7070F
:100F300010F0A61BB70B881F991F5A95A9F780952B
:100F40009095BC01CD010895EE0FFF1F0590F4911F
:080F5000E02D0994F894FFCF95
:100F5800000000008D03BA01E801E70130303030AD
:100F68003030303030303030303030303030006D6C
:100F78006F76696E67206261636B004469737461A0
:100F88006E63652069733A20000D0A006D6F7669FB
:100F98006E6720666F77617264007475726E696E31
:100FA80067207269676874007475726E696E67206D
:060FB8006C656674000088
:00000001FF
